{
    "_format": "hh-sol-artifact-1",
    "contractName": "LestonzNFT",
    "sourceName": "contracts/LestonzNFT.sol",
    "abi": [
        {
            "inputs": [],
            "stateMutability": "nonpayable",
            "type": "constructor"
        },
        {
            "inputs": [],
            "name": "ApprovalCallerNotOwnerNorApproved",
            "type": "error"
        },
        {
            "inputs": [],
            "name": "ApprovalQueryForNonexistentToken",
            "type": "error"
        },
        {
            "inputs": [],
            "name": "BalanceQueryForZeroAddress",
            "type": "error"
        },
        {
            "inputs": [],
            "name": "MintERC2309QuantityExceedsLimit",
            "type": "error"
        },
        {
            "inputs": [],
            "name": "MintToZeroAddress",
            "type": "error"
        },
        {
            "inputs": [],
            "name": "MintZeroQuantity",
            "type": "error"
        },
        {
            "inputs": [],
            "name": "OwnerQueryForNonexistentToken",
            "type": "error"
        },
        {
            "inputs": [],
            "name": "OwnershipNotInitializedForExtraData",
            "type": "error"
        },
        {
            "inputs": [],
            "name": "TransferCallerNotOwnerNorApproved",
            "type": "error"
        },
        {
            "inputs": [],
            "name": "TransferFromIncorrectOwner",
            "type": "error"
        },
        {
            "inputs": [],
            "name": "TransferToNonERC721ReceiverImplementer",
            "type": "error"
        },
        {
            "inputs": [],
            "name": "TransferToZeroAddress",
            "type": "error"
        },
        {
            "inputs": [],
            "name": "URIQueryForNonexistentToken",
            "type": "error"
        },
        {
            "anonymous": false,
            "inputs": [
                {
                    "indexed": true,
                    "internalType": "address",
                    "name": "owner",
                    "type": "address"
                },
                {
                    "indexed": true,
                    "internalType": "address",
                    "name": "approved",
                    "type": "address"
                },
                {
                    "indexed": true,
                    "internalType": "uint256",
                    "name": "tokenId",
                    "type": "uint256"
                }
            ],
            "name": "Approval",
            "type": "event"
        },
        {
            "anonymous": false,
            "inputs": [
                {
                    "indexed": true,
                    "internalType": "address",
                    "name": "owner",
                    "type": "address"
                },
                {
                    "indexed": true,
                    "internalType": "address",
                    "name": "operator",
                    "type": "address"
                },
                {
                    "indexed": false,
                    "internalType": "bool",
                    "name": "approved",
                    "type": "bool"
                }
            ],
            "name": "ApprovalForAll",
            "type": "event"
        },
        {
            "anonymous": false,
            "inputs": [
                {
                    "indexed": true,
                    "internalType": "uint256",
                    "name": "fromTokenId",
                    "type": "uint256"
                },
                {
                    "indexed": false,
                    "internalType": "uint256",
                    "name": "toTokenId",
                    "type": "uint256"
                },
                {
                    "indexed": true,
                    "internalType": "address",
                    "name": "from",
                    "type": "address"
                },
                {
                    "indexed": true,
                    "internalType": "address",
                    "name": "to",
                    "type": "address"
                }
            ],
            "name": "ConsecutiveTransfer",
            "type": "event"
        },
        {
            "anonymous": false,
            "inputs": [
                {
                    "indexed": true,
                    "internalType": "address",
                    "name": "previousOwner",
                    "type": "address"
                },
                {
                    "indexed": true,
                    "internalType": "address",
                    "name": "newOwner",
                    "type": "address"
                }
            ],
            "name": "OwnershipTransferred",
            "type": "event"
        },
        {
            "anonymous": false,
            "inputs": [
                {
                    "indexed": true,
                    "internalType": "address",
                    "name": "from",
                    "type": "address"
                },
                {
                    "indexed": true,
                    "internalType": "address",
                    "name": "to",
                    "type": "address"
                },
                {
                    "indexed": true,
                    "internalType": "uint256",
                    "name": "tokenId",
                    "type": "uint256"
                }
            ],
            "name": "Transfer",
            "type": "event"
        },
        {
            "inputs": [],
            "name": "ETHCekme",
            "outputs": [],
            "stateMutability": "nonpayable",
            "type": "function"
        },
        {
            "inputs": [
                {
                    "internalType": "uint256",
                    "name": "_mintMiktari",
                    "type": "uint256"
                },
                {
                    "internalType": "address",
                    "name": "_alici",
                    "type": "address"
                }
            ],
            "name": "MintIcinOwner",
            "outputs": [],
            "stateMutability": "nonpayable",
            "type": "function"
        },
        {
            "inputs": [
                {
                    "internalType": "string",
                    "name": "_uri",
                    "type": "string"
                }
            ],
            "name": "URIGuncelle",
            "outputs": [],
            "stateMutability": "nonpayable",
            "type": "function"
        },
        {
            "inputs": [
                {
                    "internalType": "string",
                    "name": "_uzanti",
                    "type": "string"
                }
            ],
            "name": "URIUzantiGuncelle",
            "outputs": [],
            "stateMutability": "nonpayable",
            "type": "function"
        },
        {
            "inputs": [
                {
                    "internalType": "address",
                    "name": "to",
                    "type": "address"
                },
                {
                    "internalType": "uint256",
                    "name": "tokenId",
                    "type": "uint256"
                }
            ],
            "name": "approve",
            "outputs": [],
            "stateMutability": "payable",
            "type": "function"
        },
        {
            "inputs": [
                {
                    "internalType": "address",
                    "name": "owner",
                    "type": "address"
                }
            ],
            "name": "balanceOf",
            "outputs": [
                {
                    "internalType": "uint256",
                    "name": "",
                    "type": "uint256"
                }
            ],
            "stateMutability": "view",
            "type": "function"
        },
        {
            "inputs": [
                {
                    "internalType": "address",
                    "name": "_owner",
                    "type": "address"
                }
            ],
            "name": "cuzdanKontrolu",
            "outputs": [
                {
                    "internalType": "uint256[]",
                    "name": "",
                    "type": "uint256[]"
                }
            ],
            "stateMutability": "view",
            "type": "function"
        },
        {
            "inputs": [],
            "name": "fiyat",
            "outputs": [
                {
                    "internalType": "uint256",
                    "name": "",
                    "type": "uint256"
                }
            ],
            "stateMutability": "view",
            "type": "function"
        },
        {
            "inputs": [
                {
                    "internalType": "uint256",
                    "name": "_fiyat",
                    "type": "uint256"
                }
            ],
            "name": "fiyatGuncelle",
            "outputs": [],
            "stateMutability": "nonpayable",
            "type": "function"
        },
        {
            "inputs": [
                {
                    "internalType": "uint256",
                    "name": "tokenId",
                    "type": "uint256"
                }
            ],
            "name": "getApproved",
            "outputs": [
                {
                    "internalType": "address",
                    "name": "",
                    "type": "address"
                }
            ],
            "stateMutability": "view",
            "type": "function"
        },
        {
            "inputs": [
                {
                    "internalType": "address",
                    "name": "owner",
                    "type": "address"
                },
                {
                    "internalType": "address",
                    "name": "operator",
                    "type": "address"
                }
            ],
            "name": "isApprovedForAll",
            "outputs": [
                {
                    "internalType": "bool",
                    "name": "",
                    "type": "bool"
                }
            ],
            "stateMutability": "view",
            "type": "function"
        },
        {
            "inputs": [],
            "name": "maxArz",
            "outputs": [
                {
                    "internalType": "uint256",
                    "name": "",
                    "type": "uint256"
                }
            ],
            "stateMutability": "view",
            "type": "function"
        },
        {
            "inputs": [],
            "name": "maxMintPerTX",
            "outputs": [
                {
                    "internalType": "uint256",
                    "name": "",
                    "type": "uint256"
                }
            ],
            "stateMutability": "view",
            "type": "function"
        },
        {
            "inputs": [
                {
                    "internalType": "uint256",
                    "name": "_miktar",
                    "type": "uint256"
                }
            ],
            "name": "maxMintPerTXGuncelle",
            "outputs": [],
            "stateMutability": "nonpayable",
            "type": "function"
        },
        {
            "inputs": [
                {
                    "internalType": "uint256",
                    "name": "_mintMiktari",
                    "type": "uint256"
                }
            ],
            "name": "mint",
            "outputs": [],
            "stateMutability": "payable",
            "type": "function"
        },
        {
            "inputs": [],
            "name": "name",
            "outputs": [
                {
                    "internalType": "string",
                    "name": "",
                    "type": "string"
                }
            ],
            "stateMutability": "view",
            "type": "function"
        },
        {
            "inputs": [],
            "name": "owner",
            "outputs": [
                {
                    "internalType": "address",
                    "name": "",
                    "type": "address"
                }
            ],
            "stateMutability": "view",
            "type": "function"
        },
        {
            "inputs": [
                {
                    "internalType": "uint256",
                    "name": "tokenId",
                    "type": "uint256"
                }
            ],
            "name": "ownerOf",
            "outputs": [
                {
                    "internalType": "address",
                    "name": "",
                    "type": "address"
                }
            ],
            "stateMutability": "view",
            "type": "function"
        },
        {
            "inputs": [],
            "name": "renounceOwnership",
            "outputs": [],
            "stateMutability": "nonpayable",
            "type": "function"
        },
        {
            "inputs": [
                {
                    "internalType": "address",
                    "name": "from",
                    "type": "address"
                },
                {
                    "internalType": "address",
                    "name": "to",
                    "type": "address"
                },
                {
                    "internalType": "uint256",
                    "name": "tokenId",
                    "type": "uint256"
                }
            ],
            "name": "safeTransferFrom",
            "outputs": [],
            "stateMutability": "payable",
            "type": "function"
        },
        {
            "inputs": [
                {
                    "internalType": "address",
                    "name": "from",
                    "type": "address"
                },
                {
                    "internalType": "address",
                    "name": "to",
                    "type": "address"
                },
                {
                    "internalType": "uint256",
                    "name": "tokenId",
                    "type": "uint256"
                },
                {
                    "internalType": "bytes",
                    "name": "_data",
                    "type": "bytes"
                }
            ],
            "name": "safeTransferFrom",
            "outputs": [],
            "stateMutability": "payable",
            "type": "function"
        },
        {
            "inputs": [
                {
                    "internalType": "address",
                    "name": "operator",
                    "type": "address"
                },
                {
                    "internalType": "bool",
                    "name": "approved",
                    "type": "bool"
                }
            ],
            "name": "setApprovalForAll",
            "outputs": [],
            "stateMutability": "nonpayable",
            "type": "function"
        },
        {
            "inputs": [
                {
                    "internalType": "bytes4",
                    "name": "interfaceId",
                    "type": "bytes4"
                }
            ],
            "name": "supportsInterface",
            "outputs": [
                {
                    "internalType": "bool",
                    "name": "",
                    "type": "bool"
                }
            ],
            "stateMutability": "view",
            "type": "function"
        },
        {
            "inputs": [],
            "name": "symbol",
            "outputs": [
                {
                    "internalType": "string",
                    "name": "",
                    "type": "string"
                }
            ],
            "stateMutability": "view",
            "type": "function"
        },
        {
            "inputs": [
                {
                    "internalType": "uint256",
                    "name": "_tokenId",
                    "type": "uint256"
                }
            ],
            "name": "tokenURI",
            "outputs": [
                {
                    "internalType": "string",
                    "name": "",
                    "type": "string"
                }
            ],
            "stateMutability": "view",
            "type": "function"
        },
        {
            "inputs": [],
            "name": "totalSupply",
            "outputs": [
                {
                    "internalType": "uint256",
                    "name": "",
                    "type": "uint256"
                }
            ],
            "stateMutability": "view",
            "type": "function"
        },
        {
            "inputs": [
                {
                    "internalType": "address",
                    "name": "from",
                    "type": "address"
                },
                {
                    "internalType": "address",
                    "name": "to",
                    "type": "address"
                },
                {
                    "internalType": "uint256",
                    "name": "tokenId",
                    "type": "uint256"
                }
            ],
            "name": "transferFrom",
            "outputs": [],
            "stateMutability": "payable",
            "type": "function"
        },
        {
            "inputs": [
                {
                    "internalType": "address",
                    "name": "newOwner",
                    "type": "address"
                }
            ],
            "name": "transferOwnership",
            "outputs": [],
            "stateMutability": "nonpayable",
            "type": "function"
        },
        {
            "inputs": [],
            "name": "uri",
            "outputs": [
                {
                    "internalType": "string",
                    "name": "",
                    "type": "string"
                }
            ],
            "stateMutability": "view",
            "type": "function"
        },
        {
            "inputs": [],
            "name": "uriUzantisi",
            "outputs": [
                {
                    "internalType": "string",
                    "name": "",
                    "type": "string"
                }
            ],
            "stateMutability": "view",
            "type": "function"
        }
    ],
    "bytecode": "0x60806040526040518060600160405280603681526020016200371460369139600a90805190602001906200003592919062000262565b506040518060400160405280600581526020017f2e6a736f6e000000000000000000000000000000000000000000000000000000815250600b90805190602001906200008392919062000262565b5066470de4df820000600c556005600d556002600e55348015620000a657600080fd5b506040518060400160405280600a81526020017f4c6573746f6e7a4e4654000000000000000000000000000000000000000000008152506040518060400160405280600681526020017f4c53544e4654000000000000000000000000000000000000000000000000000081525081600290805190602001906200012b92919062000262565b5080600390805190602001906200014492919062000262565b50620001556200018b60201b60201c565b60008190555050506200017d620001716200019460201b60201c565b6200019c60201b60201c565b600160098190555062000377565b60006001905090565b600033905090565b6000600860009054906101000a900473ffffffffffffffffffffffffffffffffffffffff16905081600860006101000a81548173ffffffffffffffffffffffffffffffffffffffff021916908373ffffffffffffffffffffffffffffffffffffffff1602179055508173ffffffffffffffffffffffffffffffffffffffff168173ffffffffffffffffffffffffffffffffffffffff167f8be0079c531659141344cd1fd0a4f28419497f9722a3daafe3b4186f6b6457e060405160405180910390a35050565b828054620002709062000312565b90600052602060002090601f016020900481019282620002945760008555620002e0565b82601f10620002af57805160ff1916838001178555620002e0565b82800160010185558215620002e0579182015b82811115620002df578251825591602001919060010190620002c2565b5b509050620002ef9190620002f3565b5090565b5b808211156200030e576000816000905550600101620002f4565b5090565b600060028204905060018216806200032b57607f821691505b6020821081141562000342576200034162000348565b5b50919050565b7f4e487b7100000000000000000000000000000000000000000000000000000000600052602260045260246000fd5b61338d80620003876000396000f3fe6080604052600436106101cd5760003560e01c8063715018a6116100f7578063c35c63db11610095578063e985e9c511610064578063e985e9c51461061d578063eac989f81461065a578063f2fde38b14610685578063f730a2f1146106ae576101cd565b8063c35c63db14610563578063c522071c1461058c578063c87b56dd146105b7578063e5320312146105f4576101cd565b806395d89b41116100d157806395d89b41146104d7578063a0712d6814610502578063a22cb4651461051e578063b88d4fde14610547576101cd565b8063715018a61461047e5780637763e215146104955780638da5cb5b146104ac576101cd565b8063195657d71161016f5780635c48a2cf1161013e5780635c48a2cf146103b25780636352211e146103db578063651c4d541461041857806370a0823114610441576101cd565b8063195657d71461032457806323b872dd1461034f57806342842e0e1461036b578063553f241e14610387576101cd565b8063095ea7b3116101ab578063095ea7b314610277578063166b691214610293578063176894dd146102d057806318160ddd146102f9576101cd565b806301ffc9a7146101d257806306fdde031461020f578063081812fc1461023a575b600080fd5b3480156101de57600080fd5b506101f960048036038101906101f491906126d9565b6106d9565b6040516102069190612bc7565b60405180910390f35b34801561021b57600080fd5b5061022461076b565b6040516102319190612be2565b60405180910390f35b34801561024657600080fd5b50610261600480360381019061025c919061277c565b6107fd565b60405161026e9190612b3e565b60405180910390f35b610291600480360381019061028c9190612699565b61087c565b005b34801561029f57600080fd5b506102ba60048036038101906102b59190612516565b6109c0565b6040516102c79190612ba5565b60405180910390f35b3480156102dc57600080fd5b506102f760048036038101906102f29190612733565b610c02565b005b34801561030557600080fd5b5061030e610c24565b60405161031b9190612d04565b60405180910390f35b34801561033057600080fd5b50610339610c3b565b6040516103469190612d04565b60405180910390f35b61036960048036038101906103649190612583565b610c41565b005b61038560048036038101906103809190612583565b610f66565b005b34801561039357600080fd5b5061039c610f86565b6040516103a99190612d04565b60405180910390f35b3480156103be57600080fd5b506103d960048036038101906103d4919061277c565b610f8c565b005b3480156103e757600080fd5b5061040260048036038101906103fd919061277c565b610f9e565b60405161040f9190612b3e565b60405180910390f35b34801561042457600080fd5b5061043f600480360381019061043a91906127a9565b610fb0565b005b34801561044d57600080fd5b5061046860048036038101906104639190612516565b611070565b6040516104759190612d04565b60405180910390f35b34801561048a57600080fd5b50610493611129565b005b3480156104a157600080fd5b506104aa61113d565b005b3480156104b857600080fd5b506104c161120b565b6040516104ce9190612b3e565b60405180910390f35b3480156104e357600080fd5b506104ec611235565b6040516104f99190612be2565b60405180910390f35b61051c6004803603810190610517919061277c565b6112c7565b005b34801561052a57600080fd5b5061054560048036038101906105409190612659565b611412565b005b610561600480360381019061055c91906125d6565b61151d565b005b34801561056f57600080fd5b5061058a6004803603810190610585919061277c565b611590565b005b34801561059857600080fd5b506105a16115a2565b6040516105ae9190612d04565b60405180910390f35b3480156105c357600080fd5b506105de60048036038101906105d9919061277c565b6115a8565b6040516105eb9190612be2565b60405180910390f35b34801561060057600080fd5b5061061b60048036038101906106169190612733565b611678565b005b34801561062957600080fd5b50610644600480360381019061063f9190612543565b61169a565b6040516106519190612bc7565b60405180910390f35b34801561066657600080fd5b5061066f61172e565b60405161067c9190612be2565b60405180910390f35b34801561069157600080fd5b506106ac60048036038101906106a79190612516565b6117bc565b005b3480156106ba57600080fd5b506106c3611840565b6040516106d09190612be2565b60405180910390f35b60006301ffc9a760e01b827bffffffffffffffffffffffffffffffffffffffffffffffffffffffff1916148061073457506380ac58cd60e01b827bffffffffffffffffffffffffffffffffffffffffffffffffffffffff1916145b806107645750635b5e139f60e01b827bffffffffffffffffffffffffffffffffffffffffffffffffffffffff1916145b9050919050565b60606002805461077a90612fa8565b80601f01602080910402602001604051908101604052809291908181526020018280546107a690612fa8565b80156107f35780601f106107c8576101008083540402835291602001916107f3565b820191906000526020600020905b8154815290600101906020018083116107d657829003601f168201915b5050505050905090565b6000610808826118ce565b61083e576040517fcf4700e400000000000000000000000000000000000000000000000000000000815260040160405180910390fd5b6006600083815260200190815260200160002060000160009054906101000a900473ffffffffffffffffffffffffffffffffffffffff169050919050565b600061088782610f9e565b90508073ffffffffffffffffffffffffffffffffffffffff166108a861192d565b73ffffffffffffffffffffffffffffffffffffffff161461090b576108d4816108cf61192d565b61169a565b61090a576040517fcfb3b94200000000000000000000000000000000000000000000000000000000815260040160405180910390fd5b5b826006600084815260200190815260200160002060000160006101000a81548173ffffffffffffffffffffffffffffffffffffffff021916908373ffffffffffffffffffffffffffffffffffffffff160217905550818373ffffffffffffffffffffffffffffffffffffffff168273ffffffffffffffffffffffffffffffffffffffff167f8c5be1e5ebec7d5bd14f71427d1e84f3dd0314c0f7b2291e5b200ac8c7c3b92560405160405180910390a4505050565b606060006109cd83611070565b905060008167ffffffffffffffff8111156109eb576109ea613110565b5b604051908082528060200260200182016040528015610a195781602001602082028036833780820191505090505b5090506000610a26611935565b90506000805b8482108015610a3c575060105483105b15610bf5576000600f8481548110610a5757610a566130e1565b5b906000526020600020016040518060800160405290816000820160009054906101000a900473ffffffffffffffffffffffffffffffffffffffff1673ffffffffffffffffffffffffffffffffffffffff1673ffffffffffffffffffffffffffffffffffffffff1681526020016000820160149054906101000a900467ffffffffffffffff1667ffffffffffffffff1667ffffffffffffffff16815260200160008201601c9054906101000a900460ff1615151515815260200160008201601d9054906101000a900462ffffff1662ffffff1662ffffff168152505090508060400151610be157600073ffffffffffffffffffffffffffffffffffffffff16816000015173ffffffffffffffffffffffffffffffffffffffff1614610b7d57806000015191505b8773ffffffffffffffffffffffffffffffffffffffff168273ffffffffffffffffffffffffffffffffffffffff161415610be05783858481518110610bc557610bc46130e1565b5b6020026020010181815250508280610bdc9061300b565b9350505b5b8380610bec9061300b565b94505050610a2c565b8395505050505050919050565b610c0a61193e565b80600b9080519060200190610c2092919061232a565b5050565b6000610c2e611935565b6001546000540303905090565b600c5481565b6000610c4c826119bc565b90508373ffffffffffffffffffffffffffffffffffffffff168173ffffffffffffffffffffffffffffffffffffffff1614610cb3576040517fa114810000000000000000000000000000000000000000000000000000000000815260040160405180910390fd5b600080610cbf84611a8a565b91509150610cd58187610cd061192d565b611ab1565b610d2157610cea86610ce561192d565b61169a565b610d20576040517f59c896be00000000000000000000000000000000000000000000000000000000815260040160405180910390fd5b5b600073ffffffffffffffffffffffffffffffffffffffff168573ffffffffffffffffffffffffffffffffffffffff161415610d88576040517fea553b3400000000000000000000000000000000000000000000000000000000815260040160405180910390fd5b610d958686866001611af5565b8015610da057600082555b600560008773ffffffffffffffffffffffffffffffffffffffff1673ffffffffffffffffffffffffffffffffffffffff168152602001908152602001600020600081546001900391905081905550600560008673ffffffffffffffffffffffffffffffffffffffff1673ffffffffffffffffffffffffffffffffffffffff1681526020019081526020016000206000815460010191905081905550610e6e85610e4a888887611afb565b7c020000000000000000000000000000000000000000000000000000000017611b23565b600460008681526020019081526020016000208190555060007c020000000000000000000000000000000000000000000000000000000084161415610ef6576000600185019050600060046000838152602001908152602001600020541415610ef4576000548114610ef3578360046000838152602001908152602001600020819055505b5b505b838573ffffffffffffffffffffffffffffffffffffffff168773ffffffffffffffffffffffffffffffffffffffff167fddf252ad1be2c89b69c2b068fc378daa952ba7f163c4a11628f55a4df523b3ef60405160405180910390a4610f5e8686866001611b4e565b505050505050565b610f818383836040518060200160405280600081525061151d565b505050565b600e5481565b610f9461193e565b80600e8190555050565b6000610fa9826119bc565b9050919050565b81600081118015610fc35750600e548111155b611002576040517f08c379a0000000000000000000000000000000000000000000000000000000008152600401610ff990612c24565b60405180910390fd5b600d548161100e610c24565b6110189190612e42565b1115611059576040517f08c379a000000000000000000000000000000000000000000000000000000000815260040161105090612c44565b60405180910390fd5b61106161193e565b61106b8284611b54565b505050565b60008073ffffffffffffffffffffffffffffffffffffffff168273ffffffffffffffffffffffffffffffffffffffff1614156110d8576040517f8f4eb60400000000000000000000000000000000000000000000000000000000815260040160405180910390fd5b67ffffffffffffffff600560008473ffffffffffffffffffffffffffffffffffffffff1673ffffffffffffffffffffffffffffffffffffffff16815260200190815260200160002054169050919050565b61113161193e565b61113b6000611b72565b565b61114561193e565b61114d611c38565b600061115761120b565b73ffffffffffffffffffffffffffffffffffffffff164760405161117a90612b29565b60006040518083038185875af1925050503d80600081146111b7576040519150601f19603f3d011682016040523d82523d6000602084013e6111bc565b606091505b5050905080611200576040517f08c379a00000000000000000000000000000000000000000000000000000000081526004016111f790612c84565b60405180910390fd5b50611209611c88565b565b6000600860009054906101000a900473ffffffffffffffffffffffffffffffffffffffff16905090565b60606003805461124490612fa8565b80601f016020809104026020016040519081016040528092919081815260200182805461127090612fa8565b80156112bd5780601f10611292576101008083540402835291602001916112bd565b820191906000526020600020905b8154815290600101906020018083116112a057829003601f168201915b5050505050905090565b806000811180156112da5750600e548111155b611319576040517f08c379a000000000000000000000000000000000000000000000000000000000815260040161131090612c24565b60405180910390fd5b600d5481611325610c24565b61132f9190612e42565b1115611370576040517f08c379a000000000000000000000000000000000000000000000000000000000815260040161136790612c44565b60405180910390fd5b8161137961120b565b73ffffffffffffffffffffffffffffffffffffffff163373ffffffffffffffffffffffffffffffffffffffff16146113fc5780600c546113b99190612e98565b3410156113fb576040517f08c379a00000000000000000000000000000000000000000000000000000000081526004016113f290612cc4565b60405180910390fd5b5b61140d611407611c92565b84611b54565b505050565b806007600061141f61192d565b73ffffffffffffffffffffffffffffffffffffffff1673ffffffffffffffffffffffffffffffffffffffff16815260200190815260200160002060008473ffffffffffffffffffffffffffffffffffffffff1673ffffffffffffffffffffffffffffffffffffffff16815260200190815260200160002060006101000a81548160ff0219169083151502179055508173ffffffffffffffffffffffffffffffffffffffff166114cc61192d565b73ffffffffffffffffffffffffffffffffffffffff167f17307eab39ab6107e8899845ad3d59bd9653f200f220920489ca2b5937696c31836040516115119190612bc7565b60405180910390a35050565b611528848484610c41565b60008373ffffffffffffffffffffffffffffffffffffffff163b1461158a5761155384848484611c9a565b611589576040517fd1a57ed600000000000000000000000000000000000000000000000000000000815260040160405180910390fd5b5b50505050565b61159861193e565b80600c8190555050565b600d5481565b60606115b3826118ce565b6115f2576040517f08c379a00000000000000000000000000000000000000000000000000000000081526004016115e990612ca4565b60405180910390fd5b60006115fc611dfa565b90506000815111611642576040518060400160405280600181526020017f2000000000000000000000000000000000000000000000000000000000000000815250611670565b8061164c84611e8c565b600b60405160200161166093929190612af8565b6040516020818303038152906040525b915050919050565b61168061193e565b80600a908051906020019061169692919061232a565b5050565b6000600760008473ffffffffffffffffffffffffffffffffffffffff1673ffffffffffffffffffffffffffffffffffffffff16815260200190815260200160002060008373ffffffffffffffffffffffffffffffffffffffff1673ffffffffffffffffffffffffffffffffffffffff16815260200190815260200160002060009054906101000a900460ff16905092915050565b600a805461173b90612fa8565b80601f016020809104026020016040519081016040528092919081815260200182805461176790612fa8565b80156117b45780601f10611789576101008083540402835291602001916117b4565b820191906000526020600020905b81548152906001019060200180831161179757829003601f168201915b505050505081565b6117c461193e565b600073ffffffffffffffffffffffffffffffffffffffff168173ffffffffffffffffffffffffffffffffffffffff161415611834576040517f08c379a000000000000000000000000000000000000000000000000000000000815260040161182b90612c04565b60405180910390fd5b61183d81611b72565b50565b600b805461184d90612fa8565b80601f016020809104026020016040519081016040528092919081815260200182805461187990612fa8565b80156118c65780601f1061189b576101008083540402835291602001916118c6565b820191906000526020600020905b8154815290600101906020018083116118a957829003601f168201915b505050505081565b6000816118d9611935565b111580156118e8575060005482105b8015611926575060007c0100000000000000000000000000000000000000000000000000000000600460008581526020019081526020016000205416145b9050919050565b600033905090565b60006001905090565b611946611c92565b73ffffffffffffffffffffffffffffffffffffffff1661196461120b565b73ffffffffffffffffffffffffffffffffffffffff16146119ba576040517f08c379a00000000000000000000000000000000000000000000000000000000081526004016119b190612c64565b60405180910390fd5b565b600080829050806119cb611935565b11611a5357600054811015611a525760006004600083815260200190815260200160002054905060007c010000000000000000000000000000000000000000000000000000000082161415611a50575b6000811415611a46576004600083600190039350838152602001908152602001600020549050611a1b565b8092505050611a85565b505b5b6040517fdf2d9b4200000000000000000000000000000000000000000000000000000000815260040160405180910390fd5b919050565b60008060006006600085815260200190815260200160002090508092508254915050915091565b600073ffffffffffffffffffffffffffffffffffffffff8316925073ffffffffffffffffffffffffffffffffffffffff821691508382148383141790509392505050565b50505050565b60008060e883901c905060e8611b12868684611f64565b62ffffff16901b9150509392505050565b600073ffffffffffffffffffffffffffffffffffffffff83169250814260a01b178317905092915050565b50505050565b611b6e828260405180602001604052806000815250611f6d565b5050565b6000600860009054906101000a900473ffffffffffffffffffffffffffffffffffffffff16905081600860006101000a81548173ffffffffffffffffffffffffffffffffffffffff021916908373ffffffffffffffffffffffffffffffffffffffff1602179055508173ffffffffffffffffffffffffffffffffffffffff168173ffffffffffffffffffffffffffffffffffffffff167f8be0079c531659141344cd1fd0a4f28419497f9722a3daafe3b4186f6b6457e060405160405180910390a35050565b60026009541415611c7e576040517f08c379a0000000000000000000000000000000000000000000000000000000008152600401611c7590612ce4565b60405180910390fd5b6002600981905550565b6001600981905550565b600033905090565b60008373ffffffffffffffffffffffffffffffffffffffff1663150b7a02611cc061192d565b8786866040518563ffffffff1660e01b8152600401611ce29493929190612b59565b602060405180830381600087803b158015611cfc57600080fd5b505af1925050508015611d2d57506040513d601f19601f82011682018060405250810190611d2a9190612706565b60015b611da7573d8060008114611d5d576040519150601f19603f3d011682016040523d82523d6000602084013e611d62565b606091505b50600081511415611d9f576040517fd1a57ed600000000000000000000000000000000000000000000000000000000815260040160405180910390fd5b805181602001fd5b63150b7a0260e01b7bffffffffffffffffffffffffffffffffffffffffffffffffffffffff1916817bffffffffffffffffffffffffffffffffffffffffffffffffffffffff191614915050949350505050565b6060600a8054611e0990612fa8565b80601f0160208091040260200160405190810160405280929190818152602001828054611e3590612fa8565b8015611e825780601f10611e5757610100808354040283529160200191611e82565b820191906000526020600020905b815481529060010190602001808311611e6557829003601f168201915b5050505050905090565b606060006001611e9b8461200a565b01905060008167ffffffffffffffff811115611eba57611eb9613110565b5b6040519080825280601f01601f191660200182016040528015611eec5781602001600182028036833780820191505090505b509050600082602001820190505b600115611f59578080600190039150507f3031323334353637383961626364656600000000000000000000000000000000600a86061a8153600a8581611f4357611f42613083565b5b0494506000851415611f5457611f59565b611efa565b819350505050919050565b60009392505050565b611f77838361215d565b60008373ffffffffffffffffffffffffffffffffffffffff163b1461200557600080549050600083820390505b611fb76000868380600101945086611c9a565b611fed576040517fd1a57ed600000000000000000000000000000000000000000000000000000000815260040160405180910390fd5b818110611fa457816000541461200257600080fd5b50505b505050565b600080600090507a184f03e93ff9f4daa797ed6e38ed64bf6a1f0100000000000000008310612068577a184f03e93ff9f4daa797ed6e38ed64bf6a1f010000000000000000838161205e5761205d613083565b5b0492506040810190505b6d04ee2d6d415b85acef810000000083106120a5576d04ee2d6d415b85acef8100000000838161209b5761209a613083565b5b0492506020810190505b662386f26fc1000083106120d457662386f26fc1000083816120ca576120c9613083565b5b0492506010810190505b6305f5e10083106120fd576305f5e10083816120f3576120f2613083565b5b0492506008810190505b612710831061212257612710838161211857612117613083565b5b0492506004810190505b60648310612145576064838161213b5761213a613083565b5b0492506002810190505b600a8310612154576001810190505b80915050919050565b600080549050600082141561219e576040517fb562e8dd00000000000000000000000000000000000000000000000000000000815260040160405180910390fd5b6121ab6000848385611af5565b600160406001901b178202600560008573ffffffffffffffffffffffffffffffffffffffff1673ffffffffffffffffffffffffffffffffffffffff16815260200190815260200160002060008282540192505081905550612222836122136000866000611afb565b61221c8561231a565b17611b23565b6004600083815260200190815260200160002081905550600080838301905073ffffffffffffffffffffffffffffffffffffffff85169150828260007fddf252ad1be2c89b69c2b068fc378daa952ba7f163c4a11628f55a4df523b3ef600080a4600183015b8181146122c357808360007fddf252ad1be2c89b69c2b068fc378daa952ba7f163c4a11628f55a4df523b3ef600080a4600181019050612288565b5060008214156122ff576040517f2e07630000000000000000000000000000000000000000000000000000000000815260040160405180910390fd5b8060008190555050506123156000848385611b4e565b505050565b60006001821460e11b9050919050565b82805461233690612fa8565b90600052602060002090601f016020900481019282612358576000855561239f565b82601f1061237157805160ff191683800117855561239f565b8280016001018555821561239f579182015b8281111561239e578251825591602001919060010190612383565b5b5090506123ac91906123b0565b5090565b5b808211156123c95760008160009055506001016123b1565b5090565b60006123e06123db84612d44565b612d1f565b9050828152602081018484840111156123fc576123fb613144565b5b612407848285612f66565b509392505050565b600061242261241d84612d75565b612d1f565b90508281526020810184848401111561243e5761243d613144565b5b612449848285612f66565b509392505050565b600081359050612460816132fb565b92915050565b60008135905061247581613312565b92915050565b60008135905061248a81613329565b92915050565b60008151905061249f81613329565b92915050565b600082601f8301126124ba576124b961313f565b5b81356124ca8482602086016123cd565b91505092915050565b600082601f8301126124e8576124e761313f565b5b81356124f884826020860161240f565b91505092915050565b60008135905061251081613340565b92915050565b60006020828403121561252c5761252b61314e565b5b600061253a84828501612451565b91505092915050565b6000806040838503121561255a5761255961314e565b5b600061256885828601612451565b925050602061257985828601612451565b9150509250929050565b60008060006060848603121561259c5761259b61314e565b5b60006125aa86828701612451565b93505060206125bb86828701612451565b92505060406125cc86828701612501565b9150509250925092565b600080600080608085870312156125f0576125ef61314e565b5b60006125fe87828801612451565b945050602061260f87828801612451565b935050604061262087828801612501565b925050606085013567ffffffffffffffff81111561264157612640613149565b5b61264d878288016124a5565b91505092959194509250565b600080604083850312156126705761266f61314e565b5b600061267e85828601612451565b925050602061268f85828601612466565b9150509250929050565b600080604083850312156126b0576126af61314e565b5b60006126be85828601612451565b92505060206126cf85828601612501565b9150509250929050565b6000602082840312156126ef576126ee61314e565b5b60006126fd8482850161247b565b91505092915050565b60006020828403121561271c5761271b61314e565b5b600061272a84828501612490565b91505092915050565b6000602082840312156127495761274861314e565b5b600082013567ffffffffffffffff81111561276757612766613149565b5b612773848285016124d3565b91505092915050565b6000602082840312156127925761279161314e565b5b60006127a084828501612501565b91505092915050565b600080604083850312156127c0576127bf61314e565b5b60006127ce85828601612501565b92505060206127df85828601612451565b9150509250929050565b60006127f58383612ada565b60208301905092915050565b61280a81612ef2565b82525050565b600061281b82612dcb565b6128258185612df9565b935061283083612da6565b8060005b8381101561286157815161284888826127e9565b975061285383612dec565b925050600181019050612834565b5085935050505092915050565b61287781612f04565b82525050565b600061288882612dd6565b6128928185612e0a565b93506128a2818560208601612f75565b6128ab81613153565b840191505092915050565b60006128c182612de1565b6128cb8185612e26565b93506128db818560208601612f75565b6128e481613153565b840191505092915050565b60006128fa82612de1565b6129048185612e37565b9350612914818560208601612f75565b80840191505092915050565b6000815461292d81612fa8565b6129378186612e37565b94506001821660008114612952576001811461296357612996565b60ff19831686528186019350612996565b61296c85612db6565b60005b8381101561298e5781548189015260018201915060208101905061296f565b838801955050505b50505092915050565b60006129ac602683612e26565b91506129b782613164565b604082019050919050565b60006129cf601483612e26565b91506129da826131b3565b602082019050919050565b60006129f2600f83612e26565b91506129fd826131dc565b602082019050919050565b6000612a15602083612e26565b9150612a2082613205565b602082019050919050565b6000612a38601c83612e26565b9150612a438261322e565b602082019050919050565b6000612a5b602d83612e26565b9150612a6682613257565b604082019050919050565b6000612a7e600083612e1b565b9150612a89826132a6565b600082019050919050565b6000612aa1601083612e26565b9150612aac826132a9565b602082019050919050565b6000612ac4601f83612e26565b9150612acf826132d2565b602082019050919050565b612ae381612f5c565b82525050565b612af281612f5c565b82525050565b6000612b0482866128ef565b9150612b1082856128ef565b9150612b1c8284612920565b9150819050949350505050565b6000612b3482612a71565b9150819050919050565b6000602082019050612b536000830184612801565b92915050565b6000608082019050612b6e6000830187612801565b612b7b6020830186612801565b612b886040830185612ae9565b8181036060830152612b9a818461287d565b905095945050505050565b60006020820190508181036000830152612bbf8184612810565b905092915050565b6000602082019050612bdc600083018461286e565b92915050565b60006020820190508181036000830152612bfc81846128b6565b905092915050565b60006020820190508181036000830152612c1d8161299f565b9050919050565b60006020820190508181036000830152612c3d816129c2565b9050919050565b60006020820190508181036000830152612c5d816129e5565b9050919050565b60006020820190508181036000830152612c7d81612a08565b9050919050565b60006020820190508181036000830152612c9d81612a2b565b9050919050565b60006020820190508181036000830152612cbd81612a4e565b9050919050565b60006020820190508181036000830152612cdd81612a94565b9050919050565b60006020820190508181036000830152612cfd81612ab7565b9050919050565b6000602082019050612d196000830184612ae9565b92915050565b6000612d29612d3a565b9050612d358282612fda565b919050565b6000604051905090565b600067ffffffffffffffff821115612d5f57612d5e613110565b5b612d6882613153565b9050602081019050919050565b600067ffffffffffffffff821115612d9057612d8f613110565b5b612d9982613153565b9050602081019050919050565b6000819050602082019050919050565b60008190508160005260206000209050919050565b600081519050919050565b600081519050919050565b600081519050919050565b6000602082019050919050565b600082825260208201905092915050565b600082825260208201905092915050565b600081905092915050565b600082825260208201905092915050565b600081905092915050565b6000612e4d82612f5c565b9150612e5883612f5c565b9250827fffffffffffffffffffffffffffffffffffffffffffffffffffffffffffffffff03821115612e8d57612e8c613054565b5b828201905092915050565b6000612ea382612f5c565b9150612eae83612f5c565b9250817fffffffffffffffffffffffffffffffffffffffffffffffffffffffffffffffff0483118215151615612ee757612ee6613054565b5b828202905092915050565b6000612efd82612f3c565b9050919050565b60008115159050919050565b60007fffffffff0000000000000000000000000000000000000000000000000000000082169050919050565b600073ffffffffffffffffffffffffffffffffffffffff82169050919050565b6000819050919050565b82818337600083830152505050565b60005b83811015612f93578082015181840152602081019050612f78565b83811115612fa2576000848401525b50505050565b60006002820490506001821680612fc057607f821691505b60208210811415612fd457612fd36130b2565b5b50919050565b612fe382613153565b810181811067ffffffffffffffff8211171561300257613001613110565b5b80604052505050565b600061301682612f5c565b91507fffffffffffffffffffffffffffffffffffffffffffffffffffffffffffffffff82141561304957613048613054565b5b600182019050919050565b7f4e487b7100000000000000000000000000000000000000000000000000000000600052601160045260246000fd5b7f4e487b7100000000000000000000000000000000000000000000000000000000600052601260045260246000fd5b7f4e487b7100000000000000000000000000000000000000000000000000000000600052602260045260246000fd5b7f4e487b7100000000000000000000000000000000000000000000000000000000600052603260045260246000fd5b7f4e487b7100000000000000000000000000000000000000000000000000000000600052604160045260246000fd5b600080fd5b600080fd5b600080fd5b600080fd5b6000601f19601f8301169050919050565b7f4f776e61626c653a206e6577206f776e657220697320746865207a65726f206160008201527f6464726573730000000000000000000000000000000000000000000000000000602082015250565b7f476563657273697a20736179692061646564692e000000000000000000000000600082015250565b7f4d61782061727a692067656374692e0000000000000000000000000000000000600082015250565b7f4f776e61626c653a2063616c6c6572206973206e6f7420746865206f776e6572600082015250565b7f4554482063656b6d65646520626972206861746120616c696e64692100000000600082015250565b7f455243373231204d657461646174613a20627520746f6b656e206963696e207460008201527f616e696d6c6920646567696c2100000000000000000000000000000000000000602082015250565b50565b7f596574657273697a2042616b6979652100000000000000000000000000000000600082015250565b7f5265656e7472616e637947756172643a207265656e7472616e742063616c6c00600082015250565b61330481612ef2565b811461330f57600080fd5b50565b61331b81612f04565b811461332657600080fd5b50565b61333281612f10565b811461333d57600080fd5b50565b61334981612f5c565b811461335457600080fd5b5056fea26469706673582212208da3b416e45ac06f4450d1ccf92a7c5caef23f7f9db6635c33b48d5c6cdad69c64736f6c63430008070033697066733a2f2f516d64787546694472436a6339545a7963726f787069596a48654b57584d724a6d5a7748513248533354626e57572f",
    "linkReferences": {},
    "deployedLinkReferences": {}
}